:100000000C9446000C9463000C9463000C94630001
:100010000C9463000C9463000C9463000C946300D4
:100020000C9463000C943C020C9463000C946300E9
:100030000C9463000C9463000C9463000C946300B4
:100040000C9463000C9463000C9463000C946300A4
:100050000C946300F30304041504260437044804D5
:1000600059046A047B048C04B404C504D604E70470
:10007000F80409051A052B053C054D05A105A70542
:10008000AD05B305B905BF05C505CB0511241FBED8
:10009000CFE5D8E0DEBFCDBF10E0A0E6B0E0E2E6FD
:1000A000F4E102C005900D92A236B107D9F720E025
:1000B000A2E6B0E001C01D92AD37B207E1F70E94A1
:1000C00065000C942F0A0C940000CF93DF93CDB7FA
:1000D000DEB7AA970FB6F894DEBF0FBECDBF81E0A2
:1000E0000E942D0380E00E947E0381E00E947E0337
:1000F00082E00E947E030E947C050E941E030E94F3
:10010000DB020E94A7030E94EA020E949A086AE0AA
:1001100070E080E090E00E94A7080E94F8080E942A
:100120000C0964E670E080E090E00E941F090E94E4
:100130003B0980E00E9407038F3F29F080E00E9486
:100140000703809374000E9428030E94E50281E067
:100150000E945703412C512C3201812C912C5401C7
:10016000212C312CFF24F3940F2EFDECEF2EF02DDB
:100170006E0129E2C20ED11CCE0185969AA789A7ED
:1001800082E00E949303813021F4809171008F5F9F
:1001900002C0809171008093710080FF26C1809120
:1001A0006100813009F0B4C0311033C1F0926000B9
:1001B0000E94F8080E947F059093700080936F0062
:1001C0009FEFE1EEF4E09150E040F040E1F700C035
:1001D0000000F401EE0FFF1FEE0FFF1F81E090E023
:1001E0008C0F9D1FE80FF91F80916F009091700098
:1001F000092E000CAA0BBB0B80839183A283B383CF
:100200009FEF891A990AA90AB90AEAE08E169104A1
:10021000A104B10490F1212C3F2C8E010F5F1F4FE0
:10022000F80181919191A191B191480E591E6A1ED8
:100230007B1EEC15FD05A9F7C301B2012AE030E0F1
:1002400040E050E00E94ED0920936E00F8018481A7
:100250009581A681B78181939193A193B1938F01E9
:1002600089A59AA5E817F90789F70F2EF9E08F2ECF
:10027000912CA12CB12CF02D02C0212C3F2C80916F
:10028000740090E020916E0030E0AC0145505109BF
:1002900042175307CCF00E943B090E94E5020E94DE
:1002A00023030CC08F2D0E946C039FEFE3EDF0E35E
:1002B0009150E040F040E1F700C0000084E00E946F
:1002C0002A08813079F317C005962817390754F0AA
:1002D0000E9445090E94E0020E9428038F2D0E947F
:1002E000420309C00E9445090E94E5020E942803BA
:1002F0008F2D0E94570382E00E949303182F8F2DA9
:100300000E949303812B09F472C0109261006FC0A8
:1003100021100DC0109260000E943B098F2D0E9499
:1003200057030E94E5020E9428032F2C312C909144
:1003300074009E9D812D1124869586958695382F73
:10034000330F232F220F220F230F921B9093720043
:100350008093730080E00E949303882309F16091E9
:100360007400862F90E005968C3491050CF46B5F39
:10037000609374006E9D812D1124869586958695D7
:10038000282F220F922F990F990F920F262F291B9A
:10039000209372008093730080E00E94ED0227C0DA
:1003A0008F2D0E949303882311F160917400862F92
:1003B00090E0059784970CF46550609374006E9DEF
:1003C000812D1124869586958695282F220F922FB0
:1003D000990F990F920FE62FE91BE093720080931B
:1003E000730080E00E94ED0202C0F09261000E9462
:1003F00002090E9445090E94A7038F2D0E945703FE
:1004000060E083E00E94C50660E084E00E94C506CB
:10041000B7CE0E947F059093700080936F00FFEF2E
:1004200021EE84E0F15020408040E1F700C0000060
:10043000F401EE0FFF1FEE0FFF1F81E090E08C0F25
:100440009D1FE80FF91F80916F0090917000092E99
:10045000000CAA0BBB0B80839183A283B3839FEF15
:10046000891A990AA90AB90AEAE08E169104A10428
:10047000B10408F0D2CE03CF1F920F920FB60F92A5
:1004800011242F933F934F935F936F937F938F9399
:100490009F93AF93BF93EF93FF9380916A009091E6
:1004A0006B00A0916C00B0916D000196A11DB11D73
:1004B00080936A0090936B00A0936C00B0936D00E2
:1004C00040917500509176006091770070917800AE
:1004D00084179507A607B70709F05CC080916600EE
:1004E00090916700A0916800B0916900BC01CD01B6
:1004F0006F5F7F4F8F4F9F4F6093660070936700D1
:10050000809368009093690020916000211111C0D0
:1005100024E630E040E050E00E94ED09672B682BB4
:10052000692B39F4809174000E94C4030E94750500
:1005300013C08091620090916300A0916400B0911B
:1005400065000597A105B10539F480916E000E9400
:10055000C40381E08093600010926A0010926B00E7
:1005600010926C0010926D0010926600109267005D
:10057000109268001092690010926200109263005D
:1005800010926400109265008091790090917A0039
:100590009DBD8CBDFF91EF91BF91AF919F918F91C8
:1005A0007F916F915F914F913F912F910F900FBE6F
:1005B0000F901F90189561E081E20E94D605089582
:1005C00061E081E20E94C506089560E081E20E9438
:1005D000C50608950E944F090895CF93DF93D82F41
:1005E000C62F0E945E0980E50E948C098D2F0E9413
:1005F000B0098C2F0E94B0090E94E6098FE39CE9A4
:100600000197F1F700C00000DF91CF910895CF93DB
:10061000C82F0E945E0980E50E948C098C2F0E94E1
:10062000B0090E94750980E50E9499090E94C809D5
:10063000C82F0E94E6098C2FCF91089561E082E2D5
:100640000E94D605089561E082E20E94C5060895E1
:1006500060E082E20E94C5060895813049F018F0FA
:10066000823059F0089561E080E20E94D605089535
:1006700061E085E20E94D605089561E087E10E946D
:10068000D6050895813049F018F0823059F0089568
:1006900061E080E20E94C506089561E085E20E9463
:1006A000C506089561E087E10E94C506089581307E
:1006B00049F018F0823059F0089560E080E20E941D
:1006C000C506089560E085E20E94C506089560E0D1
:1006D00087E10E94C5060895813041F018F082300C
:1006E00049F0089580E20E94B407089585E20E94CF
:1006F000B407089587E10E94B4070895813049F056
:1007000018F0823059F0089560E08AE00E94D60522
:10071000089560E08EE00E94D605089560E086E1CD
:100720000E94D6050895813041F018F0823049F0DA
:100730000CC08AE00E942A0808958EE00E942A08D0
:10074000089586E10E942A08089580E0089561E0F6
:100750008BE00E94D60561E08CE00E94D60561E046
:100760008DE00E94D60561E08CE20E94D60561E032
:100770008DE20E94D60561E08EE20E94D60561E01E
:100780008FE20E94D60508958F929F92AF92BF92FA
:10079000CF92DF92EF92FF92CF93DF939DEC899FF0
:1007A000C12C1124C694C694C6942C2D220F922FCE
:1007B000990F990F920F882E891AC2E3D0E0D12C9D
:1007C000912C61E08CE00E94C50660E08BE00E9405
:1007D000C5068AE0C816D10408F0AEC0F601E65D91
:1007E000FF4F0C940F0A60E08CE20E94C50660E0A7
:1007F0008DE20E94C50660E08EE20E94C50660E0C0
:100800008FE20E94C50698C061E08CE20E94C50696
:1008100060E08DE20E94C50660E08EE20E94C5069F
:1008200060E08FE20E94C50687C060E08CE20E9413
:10083000C50661E08DE20E94C50660E08EE20E947E
:10084000C50660E08FE20E94C50676C061E08CE2DA
:100850000E94C50661E08DE20E94C50660E08EE25E
:100860000E94C50660E08FE20E94C50665C060E098
:100870008CE20E94C50660E08DE20E94C50661E040
:100880008EE20E94C50660E08FE20E94C50654C059
:1008900061E08CE20E94C50660E08DE20E94C50620
:1008A00061E08EE20E94C50660E08FE20E94C5060C
:1008B00043C060E08CE20E94C50661E08DE20E94C8
:1008C000C50661E08EE20E94C50660E08FE20E94EC
:1008D000C50632C061E08CE20E94C50661E08DE28F
:1008E0000E94C50661E08EE20E94C50660E08FE2CC
:1008F0000E94C50621C060E08CE20E94C50660E04F
:100900008DE20E94C50660E08EE20E94C50661E0AD
:100910008FE20E94C50610C061E08CE20E94C5060D
:1009200060E08DE20E94C50660E08EE20E94C5068E
:1009300061E08FE20E94C5068FE39CE90197F1F721
:1009400000C0000060E08CE00E94C50661E08BE022
:100950000E94C5069AE08916910408F0AEC0F40121
:10096000EC5CFF4F0C940F0A60E08CE20E94C5061D
:1009700060E08DE20E94C50660E08EE20E94C5063E
:1009800060E08FE20E94C50698C061E08CE20E94A0
:10099000C50660E08DE20E94C50660E08EE20E941E
:1009A000C50660E08FE20E94C50687C060E08CE269
:1009B0000E94C50661E08DE20E94C50660E08EE2FD
:1009C0000E94C50660E08FE20E94C50676C061E025
:1009D0008CE20E94C50661E08DE20E94C50660E0DF
:1009E0008EE20E94C50660E08FE20E94C50665C0E7
:1009F00060E08CE20E94C50660E08DE20E94C506C0
:100A000061E08EE20E94C50660E08FE20E94C506AA
:100A100054C061E08CE20E94C50660E08DE20E9455
:100A2000C50661E08EE20E94C50660E08FE20E948A
:100A3000C50643C060E08CE20E94C50661E08DE21D
:100A40000E94C50661E08EE20E94C50660E08FE26A
:100A50000E94C50632C061E08CE20E94C50661E0DA
:100A60008DE20E94C50661E08EE20E94C50660E04C
:100A70008FE20E94C50621C060E08CE20E94C5069C
:100A800060E08DE20E94C50660E08EE20E94C5062D
:100A900061E08FE20E94C50610C061E08CE20E9416
:100AA000C50660E08DE20E94C50660E08EE20E940D
:100AB000C50661E08FE20E94C5068FE39CE90197BD
:100AC000F1F700C0000060E08BE00E94C5062197AE
:100AD00009F077CEDF91CF91FF90EF90DF90CF902C
:100AE000BF90AF909F908F9008958CE00E94B407C4
:100AF0008BE00E94B40708950E948F05089580E05E
:100B00000E9498059C01A4EFB1E00E94150A2FEF06
:100B100033E040E050E00E94ED09C90108953E9A9B
:100B20003F983D98359A309A319A329A379A08957B
:100B300090E088309105A0F5FC01E25CFF4F0C9439
:100B40000F0A389839983A983B983C9829C0389AB7
:100B500039983A983B983C9823C03898399A3A98F3
:100B60003B983C981DC0389A399A3A983B983C98E3
:100B700017C0389839983A9A3B983C9811C0389ADF
:100B800039983A9A3B983C980BC03898399A3A9AD7
:100B90003B983C9805C0389A399A3A9A3B983C98C9
:100BA000369A349BFECF84B195B108959DEC899F10
:100BB000912D1124969596959695662309F472C009
:100BC000613009F0E1C0923021F118F4913039F030
:100BD00008959330C1F1943009F44CC0089547B39F
:100BE0009DEC899F912D1124969596959695990F38
:100BF000292F220F220F920F891B21E030E0B9012B
:100C000002C0660F771F8A95E2F7CB01842B87BB62
:100C1000089541B39DEC899F912D112492959F7069
:100C2000990F990F292F220F220F920F891B21E074
:100C300030E0B90102C0660F771F8A95E2F7CB0159
:100C4000842B81BB089544B399E8899F912D112489
:100C500092959F707EE1979F8019112421E030E0EA
:100C6000B90102C0660F771F8A95E2F7CB01842B8A
:100C700084BB08954AB39DEC899F912D11249295D0
:100C80009695977078E2979F8019112421E030E0C3
:100C9000B90102C0660F771F8A95E2F7CB01842B5A
:100CA0008ABB0895923029F118F4913039F00895F3
:100CB0009330D1F1943009F44FC0089547B39DECBF
:100CC000899F912D1124969596959695990F292F88
:100CD000220F220F920F891B21E030E0B90102C0E0
:100CE000660F771F8A95E2F7CB018095842387BB37
:100CF000089541B39DEC899F912D112492959F7089
:100D0000990F990F292F220F220F920F891B21E093
:100D100030E0B90102C0660F771F8A95E2F7CB0178
:100D20008095842381BB089544B399E8899F912DD0
:100D3000112492959F707EE1979F8019112421E0E4
:100D400030E0B90102C0660F771F8A95E2F7CB0148
:100D50008095842384BB08954AB39DEC899F912D8F
:100D6000112492959695977078E2979F8019112497
:100D700021E030E0B90102C0660F771F8A95E2F7E3
:100D8000CB01809584238ABB08959DEC899F912D8A
:100D90001124969596959695662309F472C0613054
:100DA00009F0E1C0923021F118F4913039F0089542
:100DB0009330C1F1943009F44CC0089548B39DECD0
:100DC000899F912D1124969596959695990F292F87
:100DD000220F220F920F891B21E030E0B90102C0DF
:100DE000660F771F8A95E2F7CB01842B88BB0895A5
:100DF00042B39DEC899F912D112492959F70990F7C
:100E0000990F292F220F220F920F891B21E030E02A
:100E1000B90102C0660F771F8A95E2F7CB01842BD8
:100E200082BB089545B399E8899F912D112492952D
:100E30009F707EE1979F8019112421E030E0B90175
:100E400002C0660F771F8A95E2F7CB01842B85BB22
:100E500008954BB39DEC899F912D11249295969501
:100E6000977078E2979F8019112421E030E0B90152
:100E700002C0660F771F8A95E2F7CB01842B8BBBEC
:100E80000895923029F118F4913039F00895933093
:100E9000D1F1943009F44FC0089548B39DEC899F77
:100EA000912D1124969596959695990F292F220F9D
:100EB000220F920F891B21E030E0B90102C0660FBA
:100EC000771F8A95E2F7CB018095842388BB08952C
:100ED00042B39DEC899F912D112492959F70990F9B
:100EE000990F292F220F220F920F891B21E030E04A
:100EF000B90102C0660F771F8A95E2F7CB01809592
:100F0000842382BB089545B399E8899F912D1124CC
:100F100092959F707EE1979F8019112421E030E027
:100F2000B90102C0660F771F8A95E2F7CB01809561
:100F3000842385BB08954BB39DEC899F912D11248B
:100F400092959695977078E2979F8019112421E0E9
:100F500030E0B90102C0660F771F8A95E2F7CB0136
:100F6000809584238BBB08959DEC899F912D11243E
:100F7000969596959695923021F118F4913039F026
:100F800008959330C1F1943009F44CC0089548B3EA
:100F90009DEC899F912D1124969596959695990F84
:100FA000292F220F220F920F891B21E030E0B90177
:100FB00002C0660F771F8A95E2F7CB01842788BBB2
:100FC000089542B39DEC899F912D112492959F70B5
:100FD000990F990F292F220F220F920F891B21E0C1
:100FE00030E0B90102C0660F771F8A95E2F7CB01A6
:100FF000842782BB089545B399E8899F912D1124D8
:1010000092959F707EE1979F8019112421E030E036
:10101000B90102C0660F771F8A95E2F7CB018427DA
:1010200085BB08954BB39DEC899F912D112492951A
:101030009695977078E2979F8019112421E030E00F
:10104000B90102C0660F771F8A95E2F7CB018427AA
:101050008BBB08959DEC899F912D112496959695B3
:101060009695923011F118F4913039F061C09330B7
:10107000A1F1943009F446C05BC026B330E09DEC8A
:10108000899F912D1124969596959695990F492FA4
:10109000440F440F940F891BA90102C05595479531
:1010A0008A95E2F7CA018170089520B330E09DEC83
:1010B000899F912D112492959F70990F990F492F17
:1010C000440F440F940F891BA90102C05595479501
:1010D0008A95E2F7CA018170089523B330E099E858
:1010E000899F912D112492959F705EE1959F8019A3
:1010F0001124A90102C0559547958A95E2F7CA01C6
:101100008170089529B330E09DEC899F912D1124C1
:1011100092959695977058E2959F80191124A90190
:1011200002C0559547958A95E2F7CA0181700895E6
:1011300080E0089583B7877F83BF83B78F7B83BFAA
:101140008FB780688FBF89B7816089BF08950F937B
:101150001F939B01AC01A8EEB3E00E94240A8B010F
:101160009C01689415F83695279517950795169460
:10117000D1F7DC01CB01072E7EE0B695A7959795B8
:1011800087957A95D1F7702D8093750090937600AE
:10119000A0937700B0937800D901C801809590950D
:1011A000A095B095AC01BD015527662777274093E0
:1011B000790050937A0060937B0070937C00002349
:1011C000A1F082BF8091750090917600A091770088
:1011D000B09178000196A11DB11D80937500909388
:1011E0007600A0937700B09378001F910F91089537
:1011F00083B7816083BF83B78D7F83BF83B78460EC
:1012000083BF089583B78E7F83BF83B78D7F83BFEE
:1012100083B78B7F83BF08958FB58E7F8FBD8FB5CA
:101220008D7F8FBD8EB588608EBD8EB58F7E8EBD55
:101230008FB780688FBF89B7806189BF0895613497
:101240002FE1720781059105A8F4A8EEB3E09B0198
:10125000AC010E94240ADC01CB01689415F8B69514
:10126000A795979587951694D1F7BC0161507109A0
:101270007BBD6ABD08958EB581608EBD8EB58D7FB4
:101280008EBD8EB584608EBD08958EB58E7F8EBD69
:101290008EB58D7F8EBD8EB58B7F8EBD089588E413
:1012A00080B986B7846086BF2FEF81EE94E021502D
:1012B00080409040E1F700C00000089586B780624A
:1012C00086BF86B7806886BF06B607FEFDCF81B1B0
:1012D000887F8830E1F72FEF81EE94E02150804045
:1012E0009040E1F700C00000089586B7806286BF95
:1012F00086B7806886BF06B607FEFDCF81B1887FBE
:101300008031E1F72FEF81EE94E021508040904052
:10131000E1F700C000000895880F83B986B78068A0
:1013200086BF06B607FEFDCF81B1887F8831E1F721
:101330000895880F816083B986B7806886BF06B636
:1013400007FEFDCF81B1887F8034E1F72FEF81EE7A
:1013500094E0215080409040E1F700C000000895E3
:1013600083B986B78F7D86BF86B7806886BF06B68D
:1013700007FEFDCF81B1887F8832E1F72FEF81EE44
:1013800094E0215080409040E1F700C000000895B3
:1013900086B78F7D86BF86B78F7E86BF86B780640F
:1013A00086BF86B7806886BF06B607FEFDCF81B1CF
:1013B000887F8035E1F72FEF81EE94E02150804067
:1013C0009040E1F700C0000083B1089586B78061C6
:1013D00086BF86B7806886BF0895A1E21A2EAA1B31
:1013E000BB1BFD010DC0AA1FBB1FEE1FFF1FA217D5
:1013F000B307E407F50720F0A21BB30BE40BF50BD2
:10140000661F771F881F991F1A9469F7609570955A
:10141000809590959B01AC01BD01CF010895EE0F21
:10142000FF1F0590F491E02D0994A29FB001B39F96
:10143000C001A39F700D811D1124911DB29F700DDD
:10144000811D1124911D08950E94150AA59F900DDC
:10145000B49F900DA49F800D911D11240895F894C0
:02146000FFCFBC
:02146200010186
:00000001FF
